:100000000C9434000C9446000C9446000C9446006A
:100010000C9446000C9427020C9446000C94460065
:100020000C9446000C9446000C9446000C94460038
:100030000C9446000C9446000C9446000C94460028
:100040000C9446000C9446000C9446000C94460018
:100050000C9446000C9446000C9446000C94460008
:100060000C9446000C94460011241FBECFEFD8E03C
:10007000DEBFCDBF21E0A0E0B1E001C01D92A23003
:10008000B207E1F70E943E020C94D9020C940000E2
:100090008DE790E05D9AEFE6F7E13197F1F700C068
:1000A00000005D98EFECF7E03197F1F700C0000039
:1000B0000197009779F7089501979C0140E050E07F
:1000C00060E472E48FE090E00E94B702832F9927EA
:1000D0008093C5002093C400E1ECF0E08081886942
:1000E0008083E2ECF0E080818E60808308959091BF
:1000F000C00095FFFCCF8093C6000895CF93DF9397
:10010000EC018991882319F00E947700FACFDF91E2
:10011000CF91089587E080937A00089580E28093DC
:100120007C0080917A00806880937A0080917A00C8
:10013000806480937A0080917A0086FDFCCF809164
:10014000790090917A009F7790937A0090E00895DB
:1001500081E280937C0080917A00806880937A00AD
:1001600080917A00806480937A0080917A0086FD85
:10017000FCCF8091790090917A009F7790937A00DC
:1001800090E0089584E083BF0895EDE6F0E080817B
:1001900080648083E8E6F0E080818460808383B7B8
:1001A000816083BF7894889583B78E7F83BFF894EE
:1001B00080818B7F8083EDE6F0E080818F7B808380
:1001C000089580916D00806480936D008091680037
:1001D00084608093680078942FEF85EA9EE0215038
:1001E00080409040E1F700C00000F8948091000149
:1001F0009091010145975CF420910001309101013B
:1002000081E090E02A30310524F480E0089580E018
:1002100090E0089580916D00806480936D008091DE
:10022000680084608093680078942FEF83EF91E0FA
:10023000215080409040E1F700C00000F8942091E8
:1002400000013091010181E090E0232B11F080E06A
:1002500090E00895EF92FF920F931F93FC0140E00E
:1002600050E020E030E040175107A4F481919191D3
:100270008130910551F42F5F3F4F2A3031053CF01A
:1002800062E9E616F1041CF007C020E030E04F5FA1
:100290005F4FE9CF80E090E01F910F91FF90EF90CA
:1002A000089520E030E028173907BCF42D9A4FEF6D
:1002B00059E668E1415050406040E1F700C000005D
:1002C0002D984FEF59E668E1415050406040E1F70A
:1002D00000C000002F5F3F4FE6CF089520E030E0E0
:1002E00028173907BCF42C9A4FEF59E668E14150C2
:1002F00050406040E1F700C000002C984FEF59E6F5
:1003000068E1415050406040E1F700C000002F5FBD
:100310003F4FE6CF089520E030E028173907BCF4BE
:100320002B9A4FEF59E668E1415050406040E1F7A9
:1003300000C000002B984FEF59E668E14150504053
:100340006040E1F700C000002F5F3F4FE6CF089507
:100350000097A1F48DE790E05D9AEFECF7E031971C
:10036000F1F700C000005D98EFE6F7E13197F1F793
:1003700000C000000197009779F70895019711F4E4
:100380000C94480008950E94A8008D3A9105DCF76E
:100390000E94A8008E3A9105DCF32FEF89E698E1E0
:1003A000215080409040E1F700C0000080E090E0E4
:1003B0000E94A8010E94A8008D3A91056CF40E9449
:1003C00048005A982FEF87EA91E6215080409040EC
:1003D000E1F700C000005A9A0895019791F42A9A13
:1003E0002B985A982FEF89E698E121508040904051
:1003F000E1F700C000005A9A0E94480081E090E0B6
:1004000008955A988FE59AEE0197F1F700C0000021
:100410005A9A9FE722E382E0915020408040E1F722
:1004200000C000005A988FE59AEE0197F1F700C0DE
:1004300000005A9A2C989FEF29E688E191502040BD
:100440008040E1F700C0000080E090E008951F9236
:100450000F920FB60F9211248F939F9380910001FA
:1004600090910101019690930101809300019F9169
:100470008F910F900FBE0F901F901895CF93DF9321
:10048000CDB7DEB7CE54D1090FB6F894DEBF0FBE9C
:10049000CDBF9E012F5F3F4F690188E2F9011192A4
:1004A0008A95E9F75E01F9E2AF0EB11C86E2F5012B
:1004B00011928A95E9F787E080937A00259A529AFB
:1004C000559A2D9A5A9A5D9884E083BF2898299866
:1004D0002A980E94C500289A1092010110920001EA
:1004E0000E94E100019791F75A988FE59AEE0197E3
:1004F000F1F700C000005A9A0E948E007C012B9AEE
:100500002C9A299A860110920101109200010E94F2
:100510000A01F801819391938F01EA15FB0599F780
:100520000E94A8004C010DE110E020E030E0A501A0
:1005300060E070E0C6010E942A01F7E18F16910485
:100540001CF00E94ED0102C080E090E02B982C98F6
:100550002FEF35EA4EE0215030404040E1F700C037
:100560000000019709F0B2CF0E94C301AFCFA1E212
:100570001A2EAA1BBB1BFD010DC0AA1FBB1FEE1F1D
:10058000FF1FA217B307E407F50720F0A21BB30B68
:10059000E40BF50B661F771F881F991F1A9469F7E4
:1005A00060957095809590959B01AC01BD01CF0140
:0605B0000895F894FFCF4E
:00000001FF
