:100000000C9434000C9446000C9446000C9446006A
:100010000C9446000C940D020C9446000C9446007F
:100020000C9446000C9446000C9446000C94460038
:100030000C9446000C9446000C9446000C94460028
:100040000C9446000C9446000C9446000C94460018
:100050000C9446000C9446000C9446000C94460008
:100060000C9446000C94460011241FBECFEFD8E03C
:10007000DEBFCDBF21E0A0E0B1E001C01D92A630FF
:10008000B207E1F70E9424020C94A9020C9400002C
:1000900001979C0140E050E060E472E48FE090E062
:1000A0000E948702832F99278093C5002093C40064
:1000B000E1ECF0E0808188698083E2ECF0E080810F
:1000C0008E60808308959091C00095FFFCCF80934F
:1000D000C6000895CF93DF93EC018991882319F02E
:1000E0000E946300FACFDF91CF91089580917A004A
:1000F000806880937A0080917A00806480937A008F
:1001000080917A0086FDFCCF8091790090917A00F1
:100110009F7790937A0090E0089580E280937C002E
:1001200087E080937A000895EF92FF920F931F93D8
:10013000FC0140E050E020E030E040175107A4F41B
:10014000819191918130910551F42F5F3F4F2A3079
:1001500031053CF062E9E616F1041CF007C020E02E
:1001600030E04F5F5F4FE9CF80E090E01F910F914B
:10017000FF90EF90089584E083BF0895EDE6F0E0EE
:10018000808180648083E8E6F0E080818460808301
:1001900083B7816083BF7894889583B78E7F83BF50
:1001A000F89480818B7F8083EDE6F0E080818F7B07
:1001B0008083089580916D00806480936D008091AC
:1001C000680084608093680078942FEF85EA9EE051
:1001D000215080409040E1F700C00000F8948091E9
:1001E00002019091030145975CF420910201309146
:1001F000030181E090E02A30310524F480E0089585
:1002000080E090E0089580916D00806480936D009F
:100210008091680084608093680078942FEF83EF6A
:1002200091E0215080409040E1F700C00000F89438
:10023000209102013091030181E090E0232B11F025
:1002400080E090E0089520E030E028173907BCF402
:100250002D9A4FEF59E668E1415050406040E1F778
:1002600000C000002D984FEF59E668E14150504022
:100270006040E1F700C000002F5F3F4FE6CF0895D8
:1002800020E030E028173907BCF42C9A4FEF59E6EC
:1002900068E1415050406040E1F700C000002C98F8
:1002A0004FEF59E668E1415050406040E1F700C02F
:1002B00000002F5F3F4FE6CF089520E030E0281781
:1002C0003907BCF42B9A4FEF59E668E14150504092
:1002D0006040E1F700C000002B984FEF59E668E15D
:1002E000415050406040E1F700C000002F5F3F4F99
:1002F000E6CF08958091040190910501892BD1F4F6
:100300008DE790E05D9AEFECF7E03197F1F700C0F0
:1003100000005D98EFE6F7E13197F1F700C00000CB
:100320000197009779F781E090E090930501809321
:100330000401089580910401909105010197B9F499
:100340008DE790E05D9AEFE6F7E13197F1F700C0B5
:1003500000005D98EFECF7E03197F1F700C0000086
:100360000197009779F71092050110920401089502
:1003700089E190E05D9AEFE6F7E13197F1F700C08F
:1003800000005D98EFECF7E03197F1F700C0000056
:100390000197009779F70895019781F42A9A2B988D
:1003A0005A982FEF89E698E1215080409040E1F77C
:1003B00000C000005A9A0E947A0123C05A988FE523
:1003C0009AEE0197F1F700C000005A9A9FE722E3E6
:1003D00082E0915020408040E1F700C000005A9830
:1003E0008FE59AEE0197F1F700C000005A9A2C9819
:1003F0009FEF29E688E1915020408040E1F700C05E
:1004000000002B982C989FEF25EA8EE09150204019
:100410008040E1F700C0000008951F920F920FB6D0
:100420000F9211248F939F93809102019091030169
:10043000019690930301809302019F918F910F90F9
:100440000FBE0F901F901895CF93DF93CDB7DEB7F7
:10045000CE54D1090FB6F894DEBF0FBECDBFCE018A
:1004600001966C0188E2F60111928A95E9F75E0126
:10047000F9E2AF0EB11C86E2F50111928A95E9F717
:1004800081E090E090930501809304010E948D002B
:10049000259A529A559A2D9A5A9A5D9884E083BF6C
:1004A000289829982A980E94BE00289A1092030141
:1004B000109202010E94DA00019791F75A988FE595
:1004C0009AEE0197F1F700C000005A9A0E94760058
:1004D0007C012B9A2C9A299A860110920301109282
:1004E00002010E940301F801819391938F01EA15A3
:1004F000FB0599F70DE110E020E030E0A50160E098
:1005000070E0C6010E9494000E94CC01C9CFA1E214
:100510001A2EAA1BBB1BFD010DC0AA1FBB1FEE1F7D
:10052000FF1FA217B307E407F50720F0A21BB30BC8
:10053000E40BF50B661F771F881F991F1A9469F744
:1005400060957095809590959B01AC01BD01CF01A0
:060550000895F894FFCFAE
:00000001FF
